S011000053747972656E6865742E737265634D
S113000045C0000058C0000056C0000054C00000A5
S113001052C0000050C000004EC000004CC00000A0
S11300204AC0000048C0000046C0000044C00000B0
S113003042C0000040C000003EC000003CC00000C0
S11300403AC0000038C0000036C0000034C00000D0
S113005032C0000030C000002EC000002CC00000E0
S11300602AC0000028C0000026C0000024C00000F0
S113007022C0000020C000001EC000001CC0000000
S11300801AC0000018C0000016C0000011241FBED2
S1130090CFEFD0E4DEBFCDBF11E0A0E0B1E0ECE6ED
S11300A0F1E000E00BBF02C007900D92A830B10749
S11300B0D9F702D059C0A4CF0AD021D020E031E032
S11300C041E066E070E080E090E021D0F6CF10924D
S11300D0C50083E38093C400E1ECF0E08081886193
S11300E08083E2ECF0E080818E6080830895E0EC10
S11300F0F0E0908195FFFDCF8093C6000895E0EC79
S1130100F0E080818823ECF78091C6000895EF9297
S1130110FF920F931F93CF93DF938B0179014423B5
S113012019F0413019F019C090E001C091E0302F6E
S113013028E0829F300D112420E1329F900D11247C
S1130140892FD5DF1016110644F4E7010E0D1F1D8B
S11301508991CDDFC017D107D9F7DF91CF911F91D6
S10F01600F91FF90EF900895F894FFCFEA
S10B016C62636465666700002C
S9030000FC
