S011000053747972656E6865742E737265634D
S113000045C000004BC0000049C0000047C00000CC
S113001045C0000043C0000041C000003FC00000D4
S11300203DC000003BC0000039C0000037C00000E4
S113003035C0000033C0000031C000002FC00000F4
S11300402DC000002BC0000029C0000027C0000004
S113005025C0000023C0000021C000001FC0000014
S11300601DC000001BC0000019C0000017C0000024
S113007015C0000013C0000011C000000FC0000034
S11300800DC000000BC0000009C0000011241FBEF9
S1130090CFEFD0E4DEBFCDBF22D05CC0B1CF109291
S11300A0C50083E38093C400E1ECF0E080818861C3
S11300B08083E2ECF0E080818E6080830895E0EC40
S11300C0F0E0908195FFFDCF8093C6000895E0ECA9
S11300D0F0E080818823ECF78091C6000895CF93E7
S11300E0DF93CDB7DEB760970FB6F894DEBF0FBECF
S11300F0CDBFD5DFCE0101967C01C12CD12CE7DF29
S1130100182F82E5DCDFF7012C2D3D2D812F90E0A7
S1130110AC01022E02C0559547950A94E2F741704E
S11301205527419351932F5F3F4F2830310581F775
S11301308E010F5E1F4FF801929182918F010197FA
S113014019F481E3BCDF02C080E3B9DF0E151F059B
S10B015091F7D5CFF894FFCF1D
S9030000FC
